:020000040800F2
:1000000000000320D91B0008DD060008DF060008F9
:10001000E1060008E3060008E5060008000000000D
:10002000000000000000000000000000E7060008DB
:10003000E906000800000000EB060008ED060008D5
:10004000291C0008291C0008291C0008291C00087C
:10005000291C0008291C0008291C0008291C00086C
:10006000291C0008291C0008291C0008291C00085C
:10007000291C0008291C0008291C0008291C00084C
:10008000291C0008291C0008291C0008291C00083C
:10009000291C0008291C0008291C0008291C00082C
:1000A000291C0008291C0008291C0008291C00081C
:1000B000F5060008291C0008291C0008291C000856
:1000C000291C0008291C0008291C0008291C0008FC
:1000D000291C000805070008291C0008291C000825
:1000E000291C0008291C0008291C0008291C0008DC
:1000F000291C0008291C0008291C0008291C0008CC
:10010000291C0008291C0008291C0008291C0008BB
:10011000291C0008291C0008291C0008291C0008AB
:10012000291C0008291C0008291C0008291C00089B
:10013000291C0008291C0008291C0008291C00088B
:10014000291C0008291C0008291C0008291C00087B
:10015000291C0008291C0008291C0008291C00086B
:10016000291C0008291C0008291C0008291C00085B
:10017000291C0008291C0008291C00080000000098
:10018000291C0008291C0008291C0008291C00083B
:10019000291C0008291C0008291C0008291C00082B
:0C01A000291C0008291C0008291C00086C
:1001AC0010B5054C237833B9044B13B10448AFF3A5
:1001BC0000800123237010BD0C0000200000000003
:1001CC00841C000808B5034B1BB103490348AFF36B
:1001DC00008008BD0000000010000020841C0008F6
:1001EC0053B94AB9002908BF00281CBF4FF0FF3192
:1001FC004FF0FF3000F074B9ADF1080C6DE904CE8E
:10020C0000F006F8DDF804E0DDE9022304B07047E5
:10021C002DE9F047089D04468E46002B4DD18A42AD
:10022C00944669D9B2FA82F252B101FA02F3C2F1E0
:10023C00200120FA01F10CFA02FC41EA030E944071
:10024C004FEA1C48210CBEFBF8F61FFA8CF708FB92
:10025C0016E341EA034306FB07F199420AD91CEB6A
:10026C00030306F1FF3080F01F81994240F21C819C
:10027C00023E63445B1AA4B2B3FBF8F008FB1033E4
:10028C0044EA034400FB07F7A7420AD91CEB040419
:10029C0000F1FF3380F00A81A74240F207816444E9
:1002AC00023840EA0640E41B00261DB1D44000236E
:1002BC00C5E900433146BDE8F0878B4209D9002DD2
:1002CC0000F0EF800026C5E9000130463146BDE85C
:1002DC00F087B3FA83F6002E4AD18B4202D38242C6
:1002EC0000F2F980841A61EB030301209E46002D75
:1002FC00E0D0C5E9004EDDE702B9FFDEB2FA82F2CA
:10030C00002A40F09280A1EB0C014FEA1C471FFA27
:10031C008CFE0126200CB1FBF7F307FB131140EA0E
:10032C0001410EFB03F0884208D91CEB010103F1DB
:10033C00FF3802D2884200F2CB804346091AA4B29D
:10034C00B1FBF7F007FB101144EA01440EFB00FE71
:10035C00A64508D91CEB040400F1FF3102D2A645D6
:10036C0000F2BB800846A4EB0E0440EA03409CE775
:10037C00C6F12007B34022FA07FC4CEA030C20FA22
:10038C0007F401FA06F31C43F9404FEA1C4900FA42
:10039C0006F3B1FBF9F8200C1FFA8CFE09FB1811BF
:1003AC0040EA014108FB0EF0884202FA06F20BD932
:1003BC001CEB010108F1FF3A80F08880884240F282
:1003CC008580A8F102086144091AA4B2B1FBF9F0C6
:1003DC0009FB101144EA014100FB0EFE8E4508D9C1
:1003EC001CEB010100F1FF346CD28E456AD9023846
:1003FC00614440EA0840A0FB0294A1EB0E01A1422B
:10040C00C846A64656D353D05DB1B3EB080261EB98
:10041C000E0101FA07F722FA06F3F1401F43C5E972
:10042C00007100263146BDE8F087C2F12003D840A8
:10043C000CFA02FC21FA03F3914001434FEA1C47EA
:10044C001FFA8CFEB3FBF7F007FB10360B0C43EADC
:10045C00064300FB0EF69E4204FA02F408D91CEB8C
:10046C00030300F1FF382FD29E422DD9023863448A
:10047C009B1B89B2B3FBF7F607FB163341EA03412A
:10048C0006FB0EF38B4208D91CEB010106F1FF3879
:10049C0016D28B4214D9023E6144C91A46EA004670
:1004AC0038E72E46284605E70646E3E61846F8E602
:1004BC004B45A9D2B9EB020864EB0C0E0138A3E74B
:1004CC004646EAE7204694E74046D1E7D0467BE72C
:1004DC00023B614432E7304609E76444023842E7A4
:1004EC00704700BF08B501F0ADF800F09DF800F0C2
:1004FC0007F800F061F800F043F8FEE772B6FEE78B
:10050C0030B589B0002403940494059406940794A0
:10051C000094194B1A6B42F080021A631A6B02F0AA
:10052C0080020092009A01941A6B42F008021A633E
:10053C001A6B02F008020192019A02941A6B42F0B3
:10054C0001021A631B6B03F001030293029B0B4D18
:10055C0022464FF48051284600F0C8FF4FF48053D8
:10056C000393012304930593069403A9284600F0F2
:10057C00BFFE09B030BD00BF00380240000C024085
:10058C0008B50B480B4B03604FF4E1334360002379
:10059C008360C36003610C2242618361C3610362A7
:1005AC0001F048F900B908BDFFF7A8FFFBE700BF51
:1005BC00280000200010014000B587B000230293F2
:1005CC000393049305930093019316484FF08042D4
:1005DC00026041F63F724260836042F20F72C26069
:1005EC000361836100F060FA90B94FF48053029379
:1005FC0002A90C4800F091FA68B90023009301930A
:10060C006946084800F008FB40B907B05DF804FBE8
:10061C00FFF774FFE9E7FFF771FFEEE7FFF76EFFF7
:10062C00F3E700BF6C00002000B595B0302200212C
:10063C0008A801F019FB0023039304930593069378
:10064C0007930193204A116C41F080511164126C94
:10065C0002F080520192019A02931C490A6822F41A
:10066C00404242F480420A600A6802F4404202921C
:10067C00029A0222089201210B9110210C910E92E8
:10068C000F93082310935023119312920423139366
:10069C0008A800F009FB80B90F23039302210491F1
:1006AC00002305934FF480520692079303A800F0A1
:1006BC0049FD28B915B05DF804FBFFF71FFFEBE708
:1006CC00FFF71CFFF6E700BF003802400070004047
:1006DC00FEE7FEE7FEE7FEE7FEE770477047704770
:1006EC0008B500F0C9FF08BD08B5024800F0BAF81B
:1006FC0008BD00BF6C00002008B5024801F0A6F947
:10070C0008BD00BF2800002082B0002100910B4BD7
:10071C005A6C42F480425A645A6C02F48042009241
:10072C00009A01911A6C42F080521A641B6C03F00F
:10073C0080530193019B02B0704700BF0038024008
:10074C000368B3F1804F00D0704700B583B000212F
:10075C00019103F50E331A6C42F001021A641B6C02
:10076C0003F001030193019B0A461C2000F0EAFEF2
:10077C001C2000F01FFF03B05DF804FB10B588B01F
:10078C00002303930493059306930793026803F1E4
:10079C00804303F588339A4201D008B010BD002481
:1007AC00019403F594335A6C42F010025A645A6C5B
:1007BC0002F010020192019A02941A6B42F00102AB
:1007CC001A631B6B03F001030293029B4FF4E0636B
:1007DC00039302230493032306930723079303A98C
:1007EC00054800F085FD22462146252000F0AAFE92
:1007FC00252000F0DFFED0E70000024010B4036AB1
:10080C00046A24F001040462846924F0F00C4CEABC
:10081C00021223F00A030B43826103625DF8044B5E
:10082C00704710B4046A24F0100404628469036AEB
:10083C0024F4704C4CEA023223F0A00343EA011377
:10084C00826103625DF8044B7047836823F0700388
:10085C000B4343F007038360704770477047704742
:10086C007047704710B5044603681A6912F0020FFE
:10087C0011D0DA6812F0020F0DD06FF002021A617B
:10088C000123037703689B6913F0030F70D0FFF704
:10089C00E6FF0023237723681A6912F0040F12D0A5
:1008AC00DA6812F0040F0ED06FF004021A61022302
:1008BC00237723689B6913F4407F5FD02046FFF7B2
:1008CC00CEFF0023237723681A6912F0080F12D089
:1008DC00DA6812F0080F0ED06FF008021A610423C8
:1008EC0023772368DB6913F0030F4ED02046FFF704
:1008FC00B6FF0023237723681A6912F0100F12D069
:10090C00DA6812F0100F0ED06FF010021A61082383
:10091C0023772368DB6913F4407F3DD02046FFF733
:10092C009EFF0023237723681A6912F0010F03D06E
:10093C00DA6812F0010F36D123681A6912F0800FB1
:10094C0003D0DA6812F0800F34D123681A6912F0E0
:10095C00400F03D0DA6812F0400F32D123681A69C5
:10096C0012F0200F03D0DA6812F0200F30D110BD36
:10097C00FFF774FF2046FFF773FF8AE72046FFF767
:10098C006DFF2046FFF76CFF9BE72046FFF766FFE5
:10099C002046FFF765FFACE72046FFF75FFF2046D8
:1009AC00FFF75EFFBDE76FF001021A612046FFF70B
:1009BC0054FFC1E76FF080021A61204600F073F912
:1009CC00C3E76FF040021A612046FFF74AFFC5E704
:1009DC006FF020021A61204600F064F9C7E70000AE
:1009EC000368304A904212D0B0F1804F0FD0A2F57C
:1009FC007C4290420BD002F58062904207D002F507
:100A0C008062904203D002F57842904203D123F0E9
:100A1C0070034A681343234A90422AD0B0F1804FA6
:100A2C0027D0A2F57C42904223D002F580629042FE
:100A3C001FD002F5806290421BD002F578429042A2
:100A4C0017D002F57052904213D002F5806290429A
:100A5C000FD002F5806290420BD0A2F598329042F2
:100A6C0007D002F58062904203D002F5806290427A
:100A7C0003D123F44073CA68134323F080034A69FB
:100A8C00134303608B68C3620B688362054B984207
:100A9C0003D003F58063984201D10B6903630123F2
:100AAC00436170470000014040B310B5044690F814
:100ABC003D30F3B1022384F83D30214651F8040B4C
:100ACC00FFF78EFF012384F8463084F83E3084F81B
:100ADC003F3084F8403084F8413084F8423084F858
:100AEC00433084F8443084F8453084F83D3000209D
:100AFC0010BD80F83C30FFF723FEDBE70120704788
:100B0C0010B4846824F47F4C42EA03220A4342EA7C
:100B1C000C0282605DF8044B704790F83C30012B5E
:100B2C0078D010B50446012380F83C30022380F8BD
:100B3C003D300268936823F47F4323F0770393607E
:100B4C000B68602B4CD029D8402B54D00CD9502B8F
:100B5C0022D1CA6849680068FFF750FE502120680E
:100B6C00FFF773FE002005E0202B0DD009D9302BA8
:100B7C000AD00120012384F83D30002384F83C3056
:100B8C0010BD0BB1102B05D119462068FFF75DFE87
:100B9C000020EFE70120EDE70120EBE7B3F5805FE4
:100BAC0034D0B3F5005F0CD1CB684A688968006813
:100BBC00FFF7A6FF2268936843F4804393600020FC
:100BCC00D8E7702B24D1CB684A6889680068FFF796
:100BDC0097FF2268936843F0770393600020C9E77E
:100BEC00CA6849680068FFF71CFE60212068FFF79F
:100BFC002CFE0020BEE7CA6849680068FFF7FEFDBE
:100C0C0040212068FFF721FE0020B3E70020B1E768
:100C1C000120AFE70220704790F83C30012B3DD00B
:100C2C0010B4012380F83C30022380F83D30036877
:100C3C005A689C6822F0700C0A6842EA0C025A60EE
:100C4C000368174A93421AD0B3F1804F17D0A2F51C
:100C5C007C42934213D002F5806293420FD002F58E
:100C6C00806293420BD002F57842934207D002F592
:100C7C007052934203D0A2F59432934204D124F0E3
:100C8C0080044A6814439C60012380F83D300023A3
:100C9C0080F83C3018465DF8044B704702207047D2
:100CAC000000014070477047002800F0E08170B5EB
:100CBC0082B00446036813F0010F3BD09F4B9B6836
:100CCC0003F00C03042B2CD09C4B9B6803F00C03FF
:100CDC00082B21D06368B3F5803F4FD0B3F5A02F1C
:100CEC0052D0964B1A6822F480321A601A6822F499
:100CFC0080221A606368002B50D000F0C9FC0546B6
:100D0C008E4B1B6813F4003F14D100F0C1FC401B48
:100D1C006428F5D90320B1E1884B5B6813F4800F8C
:100D2C00D8D0864B1B6813F4003F03D06368002BAC
:100D3C0000F09F81236813F0020F54D07F4B9B6807
:100D4C0013F00C0F3ED07D4B9B6803F00C03082B6B
:100D5C0033D0E368002B68D0794B01221A6000F085
:100D6C0097FC0546754B1B6813F0020F54D100F02D
:100D7C008FFC401B0228F5D903207FE16F4A1368D2
:100D8C0043F480331360B5E76C4B1A6842F480224D
:100D9C001A601A6842F480321A60ABE700F078FCF3
:100DAC000546664B1B6813F4003FC3D000F070FC83
:100DBC00401B6428F5D9032060E1604B5B6813F499
:100DCC00800FC6D15D4B1B6813F0020F03D0E36894
:100DDC00012B40F05081594A136823F0F803216924
:100DEC0043EAC1031360236813F0080F42D0636910
:100DFC006BB3534B0122C3F8802E00F049FC05461F
:100E0C004E4B5B6F13F0020F34D100F041FC401BD2
:100E1C000228F5D9032031E1484A136823F0F8037E
:100E2C00216943EAC1031360DDE7454B00221A60D8
:100E3C0000F02EFC0546414B1B6813F0020FD2D07C
:100E4C0000F026FC401B0228F5D9032016E13C4B90
:100E5C000022C3F8802E00F01BFC0546374B5B6F5D
:100E6C0013F0020F06D000F013FC401B0228F5D93A
:100E7C00032003E1236813F0040F77D02F4B1B6C76
:100E8C0013F0805F33D1002301932C4B1A6C42F08A
:100E9C0080521A641B6C03F080530193019B012553
:100EAC00284B1B6813F4807F23D0A368012B34D00C
:100EBC00052B38D0214B1A6F22F001021A671A6FDA
:100ECC0022F004021A67A368002B3DD000F0E0FB6F
:100EDC0006461A4B1B6F13F0020F46D100F0D8FBDD
:100EEC00801B41F288339842F3D90320C6E00025D9
:100EFC00D6E7144A136843F48073136000F0C8FB00
:100F0C000646104B1B6813F4807FCED100F0C0FB5B
:100F1C00801B0228F5D90320B0E0084A136F43F078
:100F2C0001031367CFE7054B1A6F42F004021A67EF
:100F3C001A6F42F001021A67C5E700BF0038024081
:100F4C00000047420070004000F0A2FB0646524BE6
:100F5C001B6F13F0020F08D000F09AFB801B41F2BC
:100F6C0088339842F3D9032088E0EDB9A369002BAC
:100F7C0000F08380484A926802F00C02082A51D093
:100F8C00022B17D0454B00221A6600F081FB044659
:100F9C00414B1B6813F0007F42D000F079FB001B23
:100FAC000228F5D9032069E03B4A136C23F08053E7
:100FBC001364DBE7394B00221A6600F069FB054627
:100FCC00354B1B6813F0007F06D000F061FB401B13
:100FDC000228F5D9032051E0E369226A1343626ABF
:100FEC0043EA8213A26A5208013A43EA0243E26AD4
:100FFC0043EA0263284A5360284B01221A6600F028
:10100C0047FB0446244B1B6813F0007F06D100F00D
:10101C003FFB001B0228F5D903202FE000202DE018
:10102C0000202BE0012B2BD01B4B5B6803F48001C1
:10103C00E269914226D103F03F02216A8A4223D110
:10104C00616A47F6C0721A40B2EB811F1ED103F4DD
:10105C004031A26A5208013AB1EB024F18D103F0A9
:10106C007063E26AB3EB026F14D1002006E001203A
:10107C007047012002E0012000E0002002B070BDAA
:10108C000120FBE70120F9E70120F7E70120F5E754
:10109C000120F3E70120F1E700380240000047424D
:1010AC0008B5254B9B6803F00C03042B3FD0082B91
:1010BC003FD1214B5A6802F03F025B6813F4800F5A
:1010CC0012D01D4B5968C1F388111C480023A1FB99
:1010DC000001FFF785F8184B5B68C3F3014301333C
:1010EC005B00B0FBF3F025E0134B5968C1F3881C8F
:1010FC004FEA4C11B1EB0C006EEB0E0E4FEA8E1357
:10110C0043EA90638101091A63EB0E03DB0043EAA7
:10111C005173C90011EB0C0C43F10003990200232D
:10112C004FEA8C2041EA9C51FFF75AF8D3E7034869
:10113C0000E0034808BD00BF0038024040787D0144
:10114C000024F400002800F09B8070B50D46044686
:10115C004F4B1B6803F00F038B4208D2CBB24C4AA7
:10116C001370136803F00F038B4240F08B802368DD
:10117C0013F0020F17D013F0040F04D0454A9368F4
:10118C0043F4E0539360236813F0080F04D0414AF2
:10119C00936843F4604393603E4A936823F0F003F2
:1011AC00A1680B439360236813F0010F32D063687E
:1011BC00012B21D09A1E012A25D9364A126812F029
:1011CC00020F61D033498A6822F0030213438B600B
:1011DC0000F05EFA06462F4B9B6803F00C03626826
:1011EC00B3EB820F16D000F053FA801B41F2883318
:1011FC009842F0D9032042E0264A126812F4003FCC
:10120C00E0D101203BE0234A126812F0007FD9D1D3
:10121C00012034E01E4B1B6803F00F03AB4207D9CF
:10122C00EAB21B4B1A701B6803F00F03AB422DD1B3
:10123C00236813F0040F06D0164A936823F4E05386
:10124C00E1680B439360236813F0080F07D0114A31
:10125C00936823F46043216943EAC1039360FFF769
:10126C001FFF0C4B9B68C3F303130B4AD35CD84092
:10127C000A4B18600A4B186800F0BEF9002070BDCC
:10128C00012070470120FAE70120F8E70120F6E77A
:10129C00003C0240003802409C1C00080800002062
:1012AC0004000020014B1868704700BF08000020A4
:1012BC0008B5FFF7F7FF044B9B68C3F38223034A7F
:1012CC00D35CD84008BD00BF00380240AC1C0008FD
:1012DC0008B5FFF7E7FF044B9B68C3F34233034A9F
:1012EC00D35CD84008BD00BF00380240AC1C0008DD
:1012FC0000230F2B00F2F18070B582B061E085689D
:10130C005E000324B44025EA0405CC68B4402C43A9
:10131C008460456825EA02054C68C4F300129A40C3
:10132C002A4342605BE0DC08083450F8246003F088
:10133C00070295000F22AA4026EA020E0A69AA406B
:10134C0042EA0E0240F824205DE0092200E000226F
:10135C0002FA0EF22A430234604D45F82420604A0A
:10136C0094686FEA0C0224EA0C054E6816F4801F90
:10137C0001D04CEA04055A4CA560E46802EA040565
:10138C004E6816F4001F01D04CEA0405544CE5607D
:10139C00646802EA04054E6816F4003F01D04CEA7A
:1013AC0004054F4C6560246822404D6815F4803F5D
:1013BC0001D04CEA04024A4C226001330F2B00F29C
:1013CC008A8001229A400C6804EA020C32EA040476
:1013DC00F3D14C6804F00304013C012C8FD94A680A
:1013EC0002F00302032A09D0C4685D000322AA405C
:1013FC0024EA02048A68AA402243C2604A6802F0C6
:10140C000302022A8FD004684FEA430E032202FA29
:10141C000EF224EA02044A6802F0030202FA0EF207
:10142C00224302604A6812F4403FC6D00022019267
:10143C002C4A546C44F480445464526C02F4804240
:10144C000192019A9C08A51C244A52F8255003F0DD
:10145C0003024FEA820E0F2202FA0EF225EA02056F
:10146C00214A90423FF473AF02F58062904222D041
:10147C0002F58062904220D002F5806290421ED02C
:10148C0002F5806290421CD002F5806290421AD024
:10149C0002F58062904218D002F58062904216D01C
:1014AC0002F58062904214D002F5806290423FF4C3
:1014BC004CAF0A224CE701224AE7022248E70322FA
:1014CC0046E7042244E7052242E7062240E70722CA
:1014DC003EE708223CE702B070BD7047003801407F
:1014EC00003C014000380240000002400AB181611A
:1014FC00704709048161704790F83530DBB2022BDC
:10150C0003D08023436501207047052380F83530D4
:10151C000268136823F00103136000207047000079
:10152C00074AD36823F4E0631B041B0C000200F48D
:10153C00E060034343F0BF6343F40033D360704770
:10154C0000ED00E000B5194BDB68C3F30223C3F1D7
:10155C00070CBCF1040F28BF4FF0040C03F1040E70
:10156C00BEF1060F18D9033B4FF0FF3E0EFA0CFCF0
:10157C0021EA0C0199400EFA03F322EA0303194302
:10158C0000280BDB0901C9B200F1604000F5614095
:10159C0080F800135DF804FB0023E5E700F00F0072
:1015AC000901C9B2024B1954F4E700BF00ED00E089
:1015BC0014ED00E0002807DB00F01F0240090123B6
:1015CC009340024A42F82030704700BF00E100E02F
:1015DC000138B0F1807F0BD24FF0E0235861054AFF
:1015EC00F02182F823100020986107221A617047BD
:1015FC000120704700ED00E010B504460E4B187842
:10160C004FF47A73B3FBF0F30C4A1068B0FBF3F0B1
:10161C00FFF7DEFF68B90F2C01D901200AE0002288
:10162C0021464FF0FF30FFF78DFF054B1C6000206B
:10163C0000E0012010BD00BF0000002008000020C9
:10164C000400002008B50B4B1A6842F400721A60B3
:10165C001A6842F480621A601A6842F480721A6046
:10166C000320FFF75DFF0F20FFF7C6FFFFF74CF8D5
:10167C00002008BD003C0240034A1168034B1B7854
:10168C000B441360704700BFB40000200000002022
:10169C00014B1868704700BFB40000200268D36883
:1016AC0023F49073D3600268536923F001035361F0
:1016BC00012380F83D30704790F83D30DBB2122B9F
:1016CC0001D0022070478368B3F5805F17D0436A5E
:1016DC005A1C42621A7803685A60438D9BB2013BD4
:1016EC009BB243854BB90268D36823F08003D36067
:1016FC000268D36843F04003D3600020704703694D
:10170C00002BE4D1436A1B880268C3F308035360BF
:10171C00436A02334362E0E738B504460268D36893
:10172C0023F00C03D36001680A6922F47C528369AC
:10173C00C0690343206A0343E0680343134343F443
:10174C0000630B612168CA6822F4164222F00C0275
:10175C00A3682069034360690343134343F40043C4
:10176C00CB602268536923F44073536123682F4A7A
:10177C0093422FD002F5806293422BD0FFF798FD55
:10178C000023021843EB0301121841F10001C900B8
:10179C0041EA5271D200101841F1000162689218AE
:1017AC005B41FEF71DFD224DA5FB00325109642360
:1017BC0003FB1103DB003233A5FB03235B095A0047
:1017CC0002F4F87202EB011203F0070321681344D0
:1017DC008B602AE0FFF77CFD0023021843EB03012A
:1017EC00121841F10001C90041EA5271D2001018DF
:1017FC0041F10001626892185B41FEF7F1FC0C4D5F
:10180C00A5FB00325109642303FB1103DB003233C7
:10181C00A5FB03235B095A0002F4F87202EB0112D8
:10182C0003F00703216813448B6038BD001001409E
:10183C001F85EB5120B310B5044690F83D30D3B161
:10184C00022384F83D302046FFF766FF22681369B7
:10185C0023F4804313612268536923F02A035361F4
:10186C002268D36843F40053D36000202064012322
:10187C0084F83D3010BD80F83C30FEF77FFFDFE789
:10188C0001207047704708B50168CA6822F0400211
:10189C00CA6001684A6922F001024A61012280F89B
:1018AC003D20FFF7EFFF002008BD704708B590F80A
:1018BC003D30DBB2222B46D18368B3F5805F19D063
:1018CC00C26AB3F5805F02D00BBB0369FBB9036836
:1018DC005B681370C36A0133C362438E9BB2013BD6
:1018EC009BB24386438E9BB2BBB10368FF225A6006
:1018FC00002008BD0269002AE2D1C26A03685B6855
:10190C00C3F308031380C36A0233C362E5E70368B9
:10191C005B6803F07F031370DCE70268D36823F085
:10192C002003D3600268D36823F48073D360026809
:10193C00536923F001035361012380F83D30FFF715
:10194C00B4FF0020D5E70220D3E7704708B590F824
:10195C003D30DBB2322B75D1438D9BB2D3B10368D2
:10196C001A6812F0800F15D08268B2F5805F35D0FE
:10197C00426A511C416212785A60438D9BB2013B02
:10198C009BB24385438D9BB223B90268D36823F085
:10199C008003D360438E9BB2DBB103681A6812F0EC
:1019AC00200F16D08268B2F5805F23D0B2F5805F2D
:1019BC0004D0002A2AD10269002A27D15A68C36AA6
:1019CC001A70C36A0133C362438E9BB2013B9BB254
:1019DC004386438E9BB2FBB1002008BD0269002AEE
:1019EC00C6D1426A1288C2F308025A60436A0233B3
:1019FC004362C2E701690029D8D1C26A5B68C3F3AC
:101A0C0008031380C36A0233C362DDE75B68C26AF2
:101A1C0003F07F031370D4E70268D36823F020032C
:101A2C00D3600268D36823F48073D360026853696F
:101A3C0023F001035361012380F83D30FFF785FF4C
:101A4C000020CAE70220C8E77047000010B5044622
:101A5C0002681368D168526913F00F0005D113F0B6
:101A6C00200F02D011F0200F14D128B112F0010276
:101A7C001DD111F4907F1AD113F0800F02D011F008
:101A8C00800F7ED113F0400F03D011F0400F40F0C7
:101A9C00858010BD94F83D30DBB2222B03D020465C
:101AAC00FFF754FFF5E72046FFF700FFF1E713F0CF
:101ABC00010F06D011F4807F03D0206C40F00100A0
:101ACC00206413F0040F04D01AB1206C40F0020013
:101ADC00206413F0020F04D01AB1206C40F0040003
:101AEC00206413F0080F07D011F0200F00D11AB1A9
:101AFC00226C42F008022264226C002AC9D013F036
:101B0C00200F0AD011F0200F07D094F83D30DBB233
:101B1C00222B24D02046FFF719FF23685B6903F0C2
:101B2C004003226C12F0080F00D123B32046FFF7BC
:101B3C00B5FD23685A6912F0400F18D05A6922F08B
:101B4C0040025A61A36B73B1164A1A65A06BFFF77A
:101B5C00D3FC00289DD0A06B036D984799E72046D5
:101B6C00FFF7A4FED9E72046FFF76EFF91E720466A
:101B7C00FFF76AFF8DE72046FFF766FF002323641B
:101B8C0087E794F83D30DBB2122B03D02046FFF7E9
:101B9C00DDFE7EE72046FFF78FFD7AE72046FFF754
:101BAC0072FE76E7B51B000808B5806B00234386F0
:101BBC004385FFF749FF08BD034AD2F8883043F448
:101BCC007003C2F88830704700ED00E0DFF834D0C5
:101BDC000D480E490E4A002302E0D458C450043379
:101BEC00C4188C42F9D30B4A0B4C002301E0136050
:101BFC000432A242FBD3FFF7DFFF00F011F8FEF72F
:101C0C0071FC704700000320000000200C00002035
:101C1C00C41C00080C000020B8000020FEE70000E7
:101C2C0070B50D4D0D4C641BA4100026A64209D1B5
:101C3C000B4D0C4C00F020F8641BA4100026A6429F
:101C4C0005D170BD55F8043B98470136EEE755F8C1
:101C5C00043B98470136F2E7BC1C0008BC1C00088A
:101C6C00BC1C0008C01C000802440346934200D16F
:101C7C00704703F8011BF9E7F8B500BFF8BC08BCC6
:101C8C009E467047F8B500BFF8BC08BC9E4670472E
:101C9C000000000000000000010203040607080910
:081CAC00000000000102030426
:081CB40068E5FF7F010000005C
:041CBC00D10100084A
:041CC000AD0100086A
:0C1CC40001000000100000000024F400EB
:0400000508001BD9FB
:00000001FF
